:100000000C942A000C9447000C9447000C94470071
:100010000C9447000C9447000C9447000C94470044
:100020000C9447000C9447000C9447000C94470034
:100030000C9447000C9447000C9447000C94470024
:100040000C9447000C9447000C9447000C94470014
:100050000C94470011241FBECFE5D8E0DEBFCDBF12
:1000600011E0A0E6B0E0E4E6F8E002C005900D92F1
:10007000A035B107D9F721E0A0E5B1E001C01D929C
:10008000A535B207E1F70E9460030C9430040C948C
:1000900000004091610060E0809160000E94870054
:1000A0001092500108951F93CF93DF93C82FD0E093
:1000B000FE01E05BFE4F1081CE01880F991FFC010D
:1000C000EF59FF4FDC01A05ABF4F60818C910E9415
:1000D000E70011110DC0811105C0C05BDE4F188211
:1000E00081E011C0C05BDE4F81E0888380E00BC0FF
:1000F000811105C0C05BDE4F188281E004C0C05B87
:10010000DE4F81E08883DF91CF911F910895813088
:1001100081F028F08230B9F08330F9F008958AB385
:10012000942F909589238ABB8AB34623482B4ABBD8
:10013000089587B3942F9095892387BB87B346236F
:10014000482B47BB089584B3942F9095892384BB93
:1001500084B34623482B44BB089581B3942F9095D4
:10016000892381BB81B34623482B41BB089581304D
:1001700081F028F08230B9F08330F9F008958BB324
:10018000942F909589238BBB8BB34623482B4BBB75
:10019000089588B3942F9095892388BB88B346230C
:1001A000482B48BB089585B3942F9095892385BB30
:1001B00085B34623482B45BB089582B3942F909571
:1001C000892382BB82B34623482B42BB08958130EA
:1001D00049F028F0823049F0833051F00BC029B348
:1001E000262308C026B3262305C023B3262302C036
:1001F00020B32623822F0895CF93DF93EC01FC01D7
:1002000001900020E9F73197E81BF90B809152012A
:10021000811129C040915101242F30E080E18E1BD3
:1002200090E001972817390739F481E08093520153
:100230004F5F4093510103C04F5F409351010E94B3
:100240004D0360E0809151010E943903CE010E946C
:1002500051032FE78AE196E0215080409040E1F77A
:1002600000C000001FC080915101813029F410921C
:1002700052011092510103C08150809351010E949C
:100280004D0360E0809151010E943903CE010E942C
:1002900051032FE78AE196E0215080409040E1F73A
:1002A00000C00000DF91CF910895FF920F931F933C
:1002B000CF93DF93CDB7DEB727970FB6F894DEBFA5
:1002C0000FBECDBF61E080E00E94390300E010E086
:1002D0006894FF24F5F80E941C028332E9F18A3207
:1002E00001F51123C1F31150E1E0F0E0EC0FFD1F27
:1002F000E10FF11DF082015061E0802F0E9439036F
:100300008F2D0E94FE0261E0802F0E9439032FE7AB
:100310008AE196E0215080409040E1F700C0000063
:10032000DACF90ED980F9A30B0F61530A1F2E1E0F7
:10033000F0E0EC0FFD1FE10FF11D80831F5F0E94B5
:10034000FE020F5F2FE78AE196E021508040904047
:10035000E1F700C00000BFCFE1E0F0E0EC0FFD1FCF
:10036000E10FF11D1082CE0101960E940A0427962A
:100370000FB6F894DEBF0FBECDBFDF91CF911F91B6
:100380000F91FF900895EF92FF920F931F93CF93D9
:10039000DF930FE610E0CEE6D0E0F80140816FEF8A
:1003A00088810E9487000F2EF0E7EF2EF0E0FF2EED
:1003B000F02DF701408160E088810E948700F701FD
:1003C00040816FEF88810E94B700F801808180FF33
:1003D00025C01AC0982F932319F02093540114C0FC
:1003E0002F5F880F8930B0F3209354010DC0982FF0
:1003F000932319F02093530118C02F5F880F893081
:10040000B0F32093530111C08091700080FD0DC0A6
:1004100020915301382F2F5F82E0E9CF20915401C2
:1004200030916F002F5F82E0D5CFDF91CF911F9188
:100430000F91FF90EF900895DF92EF92FF920F934C
:100440001F93CF93DF93DD24D3940F2EFFE6EF2E7F
:10045000F0E0FF2EF02D0EE610E0C0E7D0E06D2DAD
:1004600070E00090540102C0660F771F0A94E2F713
:100470006095F7014081F80180810E94B700688192
:10048000F80180810E94E7009881891728F0DD0C2F
:10049000F8E0FD1520F780E08095877090E00090EF
:1004A000530102C0959587950A94E2F7282F80FDA5
:1004B0001FC082E031E0982F9223D9F43150880F89
:1004C0008830C8F316C0292F2D2131F48150990F9F
:1004D0009031C8F301C083E090E0FC01EE0FFF1FF4
:1004E000E80FF91FE30FF11DEE59FF4F808106C0A1
:1004F00032E0D0FCF0CF92E082E0E5CFDF91CF9107
:100500001F910F91FF90EF90DF90089548E060E019
:10051000809171000E94B70087EE93E00197F1F798
:1005200000C0000048E06FEF809171000E94B700AA
:1005300087EB9BE00197F1F700C000000895FF9260
:100540000F931F93CF93DF93F82EC1E7D0E042E0E3
:1005500060E088810E94B70044E060E088810E94EA
:10056000B70003E710E0C2E7D0E0F801408160E0A7
:1005700088810E94B7006F2D607FF80140818881DB
:100580000E94B7000E948602F801408160E08881E5
:100590000E94B7006F2D6295607FF80140818881CD
:1005A0000E94B7000E948602DF91CF911F910F91A8
:1005B000FF900895CF93DF93C1E7D0E04EE06FEF57
:1005C00088810E948700409173006FEF80917200D4
:1005D0000E94870048E06FEF88810E94B70083E3A4
:1005E0000E949F0282E30E949F0288E20E949F0273
:1005F0008CE00E949F02DF91CF910895FF920F93AC
:100600001F93CF93DF93F82EC1E7D0E042E06FEF66
:1006100088810E94B70044E060E088810E94B700B2
:1006200003E710E0C2E7D0E0F801408160E0888194
:100630000E94B7006F2D607FF801408188810E9481
:10064000B7000E948602F801408160E088810E9424
:10065000B7006F2D6295607FF801408188810E940C
:10066000B7000E948602DF91CF911F910F91FF90FA
:100670000895613041F028F0623039F0633039F08C
:1006800008C0805807C0805405C0805803C08058F7
:1006900001C080E80E949F02089581E00E949F02AD
:1006A0000895CF93DF93EC018881882331F0219660
:1006B0000E94FE0289918111FBCFDF91CF910895B5
:1006C0000E9449000E94DA020E94C3014EEF6FEFC0
:1006D00083E00E948700C0E00F2EFDE0FF2EF02D8A
:1006E0000EE010E04EEF60E083E00E94B7000E9451
:1006F0004D0304C08AE291E00E94FC0080E00E9469
:1007000053008130B9F30E944D03D0E0FC9EC0013C
:10071000FD9E900D11248C589F4F0E94510380E044
:100720000E9453008130D9F30E944D0381E391E090
:100730000E9451030E945501FC9EF001FD9EF00DA8
:100740001124EC58FF4F2385348528173907A9F465
:100750000E944D038FE391E00E94510348E06FEF48
:1007600083E00E94B7002FEF89E698E12150804096
:100770009040E1F700C0000019C00E944D0388E4DA
:1007800091E00E94510340E16FEF83E00E94B700C7
:1007900040E26FEF83E00E94B7002FEF89E698E117
:1007A000215080409040E1F700C0000080E00E94AE
:1007B00053008130D9F3CE010196B8010E94E203C3
:1007C000C82F90CF97FB072E16F4009407D077FD23
:1007D00009D00E94F60307FC05D03EF49095819560
:1007E0009F4F0895709561957F4F0895AA1BBB1B7D
:1007F00051E107C0AA1FBB1FA617B70710F0A61B21
:10080000B70B881F991F5A95A9F780959095BC0141
:10081000CD010895FC0188279927E8942191203281
:10082000E9F3293010F02E30C8F32B3241F02D328D
:1008300039F4689404C00E942804820F911D21910C
:1008400020532A30C0F31EF4909581959F4F089550
:100850007AE0979F902D879F802D910D1124089508
:04086000F894FFCF3A
:1008640003013132333435363738392A30230278AC
:10087400070100F0436F64652031000000000000B0
:1008840000436F6465203200000000000500436FE0
:100894006465203300000000000100436F6465209C
:1008A4003400000000001B00436F64652035000025
:1008B4000000000000436F64652036000000000063
:1008C4007B00436F6465203700000000008C024306
:1008D4006F6465203800000000007203436F646594
:1008E400203900000000001400436F64652031309B
:1008F400000000007800436F64652031310000007F
:10090400001E00436F6465203132000000000900BE
:10091400436F6465203133000000000400436F64BA
:1009240065203134000000000100506978656C7363
:1009340000596F757220416E73776572203A0063B7
:100944006F7272656374210057726F6E67202100A5
:00000001FF
