:100000000C942A000C9447000C9447000C94470071
:100010000C9447000C9447000C9447000C94470044
:100020000C9447000C9447000C9447000C94470034
:100030000C9447000C9447000C9447000C94470024
:100040000C9447000C9447000C9447000C94470014
:100050000C94470011241FBECFE5D8E0DEBFCDBF12
:1000600011E0A0E6B0E0EAE0FAE002C005900D92EF
:10007000AC3BB107D9F721E0ACEBB1E001C01D9278
:10008000A13CB207E1F70E9460030C9403050C94B5
:1000900000004091650060E0809164000E9487004C
:1000A0001092BC0108951F93CF93DF93C82FD0E027
:1000B000FE01E454FE4F1081CE01880F991FFC0110
:1000C000EB59FF4FDC01AC59BF4F60818C910E940E
:1000D000E70011110DC0811105C0C454DE4F188214
:1000E00081E011C0C454DE4F81E0888380E00BC002
:1000F000811105C0C454DE4F188281E004C0C4548D
:10010000DE4F81E08883DF91CF911F910895813088
:1001100081F028F08230B9F08330F9F008958AB385
:10012000942F909589238ABB8AB34623482B4ABBD8
:10013000089587B3942F9095892387BB87B346236F
:10014000482B47BB089584B3942F9095892384BB93
:1001500084B34623482B44BB089581B3942F9095D4
:10016000892381BB81B34623482B41BB089581304D
:1001700081F028F08230B9F08330F9F008958BB324
:10018000942F909589238BBB8BB34623482B4BBB75
:10019000089588B3942F9095892388BB88B346230C
:1001A000482B48BB089585B3942F9095892385BB30
:1001B00085B34623482B45BB089582B3942F909571
:1001C000892382BB82B34623482B42BB08958130EA
:1001D00049F028F0823049F0833051F00BC029B348
:1001E000262308C026B3262305C023B3262302C036
:1001F00020B32623822F0895CF93DF93EC01FC01D7
:1002000001900020E9F73197E81BF90B8091BE01BE
:10021000811129C04091BD01242F30E080E18E1B67
:1002200090E001972817390739F481E08093BE01E7
:100230004F5F4093BD0103C04F5F4093BD010E94DB
:100240004D0360E08091BD010E943903CE010E9400
:1002500051032FE78AE196E0215080409040E1F77A
:1002600000C000001FC08091BD01813029F41092B0
:10027000BE011092BD0103C081508093BD010E9458
:100280004D0360E08091BD010E943903CE010E94C0
:1002900051032FE78AE196E0215080409040E1F73A
:1002A00000C00000DF91CF910895FF920F931F933C
:1002B000CF93DF93CDB7DEB727970FB6F894DEBFA5
:1002C0000FBECDBF61E080E00E94390300E010E086
:1002D0006894FF24F5F80E941C028332E9F18A3207
:1002E00001F51123C1F31150E1E0F0E0EC0FFD1F27
:1002F000E10FF11DF082015061E0802F0E9439036F
:100300008F2D0E94FE0261E0802F0E9439032FE7AB
:100310008AE196E0215080409040E1F700C0000063
:10032000DACF90ED980F9A30B0F61530A1F2E1E0F7
:10033000F0E0EC0FFD1FE10FF11D80831F5F0E94B5
:10034000FE020F5F2FE78AE196E021508040904047
:10035000E1F700C00000BFCFE1E0F0E0EC0FFD1FCF
:10036000E10FF11D1082CE0101960E947A042796BA
:100370000FB6F894DEBF0FBECDBFDF91CF911F91B6
:100380000F91FF900895EF92FF920F931F93CF93D9
:10039000DF9303E710E0C2E7D0E0F80140816FEFA0
:1003A00088810E9487000F2EF4E7EF2EF0E0FF2EE9
:1003B000F02DF701408160E088810E948700F701FD
:1003C00040816FEF88810E94B700F801808180FF33
:1003D00025C01AC0982F932319F02093C00114C090
:1003E0002F5F880F8930B0F32093C0010DC0982F84
:1003F000932319F02093BF0118C02F5F880F893015
:10040000B0F32093BF0111C08091740080FD0DC036
:100410002091BF01382F2F5F82E0E9CF2091C001EA
:10042000309173002F5F82E0D5CFDF91CF911F9184
:100430000F91FF90EF900895DF92EF92FF920F934C
:100440001F93CF93DF93DD24D3940F2EF3E7EF2E8A
:10045000F0E0FF2EF02D02E710E0C4E7D0E06D2DB4
:1004600070E00090C00102C0660F771F0A94E2F7A7
:100470006095F7014081F80180810E94B700688192
:10048000F80180810E94E7009881891728F0DD0C2F
:10049000F8E0FD1520F780E08095877090E00090EF
:1004A000BF0102C0959587950A94E2F7282F80FD39
:1004B0001FC082E031E0982F9223D9F43150880F89
:1004C0008830C8F316C0292F2D2131F48150990F9F
:1004D0009031C8F301C083E090E0FC01EE0FFF1FF4
:1004E000E80FF91FE30FF11DEA59FF4F808106C0A5
:1004F00032E0D0FCF0CF92E082E0E5CFDF91CF9107
:100500001F910F91FF90EF90DF90089548E060E019
:10051000809175000E94B70087EE93E00197F1F794
:1005200000C0000048E06FEF809175000E94B700A6
:1005300087EB9BE00197F1F700C000000895FF9260
:100540000F931F93CF93DF93F82EC5E7D0E042E0DF
:1005500060E088810E94B70044E060E088810E94EA
:10056000B70007E710E0C6E7D0E0F801408160E09F
:1005700088810E94B7006F2D607FF80140818881DB
:100580000E94B7000E948602F801408160E08881E5
:100590000E94B7006F2D6295607FF80140818881CD
:1005A0000E94B7000E948602DF91CF911F910F91A8
:1005B000FF900895CF93DF93C5E7D0E04EE06FEF53
:1005C00088810E948700409177006FEF80917600CC
:1005D0000E94870048E06FEF88810E94B70083E3A4
:1005E0000E949F0282E30E949F0288E20E949F0273
:1005F0008CE00E949F02DF91CF910895FF920F93AC
:100600001F93CF93DF93F82EC5E7D0E042E06FEF62
:1006100088810E94B70044E060E088810E94B700B2
:1006200007E710E0C6E7D0E0F801408160E088818C
:100630000E94B7006F2D607FF801408188810E9481
:10064000B7000E948602F801408160E088810E9424
:10065000B7006F2D6295607FF801408188810E940C
:10066000B7000E948602DF91CF911F910F91FF90FA
:100670000895613041F028F0623039F0633039F08C
:1006800008C0805807C0805405C0805803C08058F7
:1006900001C080E80E949F02089581E00E949F02AD
:1006A0000895CF93DF93EC018881882331F0219660
:1006B0000E94FE0289918111FBCFDF91CF910895B5
:1006C0000E9449000E94DA020E94C3014EEF6FEFC0
:1006D00083E00E948700C0E0D0E00F2EF6E1EF2E0D
:1006E000F12CF02D0F2EFDE0DF2EF02DCE010E941B
:1006F0006F040E946A04B7010E94F40301E0080F2E
:100700004EEF60E083E00E94B7000E944D0304C0FA
:1007100086E991E00E94FC0080E00E945300813055
:10072000B9F30E944D0310E0D09EC001D19E900D00
:10073000112488589F4F0E9451032FEF89E698E1BA
:10074000215080409040E1F700C0000080E00E940E
:1007500053008130D9F30E944D038DE991E00E944E
:1007600051030E945501D09EF001D19EF00D11243D
:10077000E858FF4F2385348528173907A9F40E94CC
:100780004D038BEA91E00E94510348E06FEF83E054
:100790000E94B7002FEF89E698E1215080409040F9
:1007A000E1F700C0000019C00E944D0384EB91E006
:1007B0000E94510340E16FEF83E00E94B70040E2E6
:1007C0006FEF83E00E94B7002FEF89E698E1215098
:1007D00080409040E1F700C0000080E00E9453009C
:1007E0008130D9F3219682CF97FB072E16F400941F
:1007F00007D077FD09D00E94080407FC05D03EF41D
:10080000909581959F4F0895709561957F4F0895BC
:10081000AA1BBB1B51E107C0AA1FBB1FA617B70726
:1008200010F0A61BB70B881F991F5A95A9F7809542
:100830009095BC01CD0108958F929F92AF92BF9287
:10084000CF92DF92EF92FF92CF93DF93EC0168811A
:1008500079818A819B81611571058105910521F45A
:1008600064E279ED8BE597E02DE133EF41E050E074
:100870000E94A00449015A019B01AC01A7EAB1E41E
:100880000E94BF046B017C01ACEEB4EFA5019401A2
:100890000E94CD04C60ED71EE81EF91EF7FE06C044
:1008A00081E0C81AD108E10880E8F80AC882D98234
:1008B000EA82FB82C6019F77DF91CF91FF90EF9094
:1008C000DF90CF90BF90AF909F908F9008950E943F
:1008D0001C04089580E690E00E941C040895A0E0A6
:1008E000B0E08093600090936100A0936200B093A9
:1008F00063000895FC0188279927E894219120320C
:10090000E9F3293010F02E30C8F32B3241F02D32AC
:1009100039F4689404C00E949804820F911D2191BB
:1009200020532A30C0F31EF4909581959F4F08956F
:100930007AE0979F902D879F802D910D1124089527
:10094000052E97FB1EF400940E94B70457FD07D0B4
:100950000E94D20407FC03D04EF40C94B7045095C7
:100960004095309521953F4F4F4F5F4F089590959B
:100970008095709561957F4F8F4F9F4F08950E948E
:10098000F404A59F900DB49F900DA49F800D911D20
:1009900011240895B7FF0C94BF040E94BF04821B6A
:1009A000930B0895A1E21A2EAA1BBB1BFD010DC0DB
:1009B000AA1FBB1FEE1FFF1FA217B307E407F5070F
:1009C00020F0A21BB30BE40BF50B661F771F881FEB
:1009D000991F1A9469F760957095809590959B0181
:1009E000AC01BD01CF010895A29FB001B39FC0012A
:1009F000A39F700D811D1124911DB29F700D811D4B
:0A0A00001124911D0895F894FFCF12
:100A0A000100000003013132333435363738392AD0
:100A1A0030230278070100F0436F6465203100003B
:100A2A000000000000436F646520320000000000EF
:100A3A000500436F64652033000000000001004395
:100A4A006F6465203400000000001B00436F64657A
:100A5A00203500000000000000436F646520360066
:100A6A00000000007B00436F64652037000000002F
:100A7A00008C02436F646520380000000000720396
:100A8A00436F6465203900000000001400436F645E
:100A9A0065203130000000007800436F6465203122
:100AAA0031000000001E00436F64652031320000EF
:100ABA0000000900436F6465203133000000000420
:100ACA0000436F6465203134000000000100636F49
:100ADA006465203135000000000F00636F646520F3
:100AEA003136000000007A04636F646520313700F4
:100AFA000000000000636F646520313800000000C8
:100B0A000000636F6465203139000000000500634E
:100B1A006F6465203230000000000100636F646575
:100B2A00203231000000000F00636F64652032320A
:100B3A00000000006202506978656C7300596F7595
:100B4A007220416E73776572203A00636F72726524
:0C0B5A006374210057726F6E6720210049
:00000001FF
